{
  "_format": "hh-sol-artifact-1",
  "contractName": "CertificateNFT",
  "sourceName": "contracts/CertificateNFT.sol",
  "abi": [
    {
      "inputs": [],
      "stateMutability": "nonpayable",
      "type": "constructor"
    },
    {
      "inputs": [],
      "name": "ERC721EnumerableForbiddenBatchMint",
      "type": "error"
    },
    {
      "inputs": [
        {
          "internalType": "address",
          "name": "sender",
          "type": "address"
        },
        {
          "internalType": "uint256",
          "name": "tokenId",
          "type": "uint256"
        },
        {
          "internalType": "address",
          "name": "owner",
          "type": "address"
        }
      ],
      "name": "ERC721IncorrectOwner",
      "type": "error"
    },
    {
      "inputs": [
        {
          "internalType": "address",
          "name": "operator",
          "type": "address"
        },
        {
          "internalType": "uint256",
          "name": "tokenId",
          "type": "uint256"
        }
      ],
      "name": "ERC721InsufficientApproval",
      "type": "error"
    },
    {
      "inputs": [
        {
          "internalType": "address",
          "name": "approver",
          "type": "address"
        }
      ],
      "name": "ERC721InvalidApprover",
      "type": "error"
    },
    {
      "inputs": [
        {
          "internalType": "address",
          "name": "operator",
          "type": "address"
        }
      ],
      "name": "ERC721InvalidOperator",
      "type": "error"
    },
    {
      "inputs": [
        {
          "internalType": "address",
          "name": "owner",
          "type": "address"
        }
      ],
      "name": "ERC721InvalidOwner",
      "type": "error"
    },
    {
      "inputs": [
        {
          "internalType": "address",
          "name": "receiver",
          "type": "address"
        }
      ],
      "name": "ERC721InvalidReceiver",
      "type": "error"
    },
    {
      "inputs": [
        {
          "internalType": "address",
          "name": "sender",
          "type": "address"
        }
      ],
      "name": "ERC721InvalidSender",
      "type": "error"
    },
    {
      "inputs": [
        {
          "internalType": "uint256",
          "name": "tokenId",
          "type": "uint256"
        }
      ],
      "name": "ERC721NonexistentToken",
      "type": "error"
    },
    {
      "inputs": [
        {
          "internalType": "address",
          "name": "owner",
          "type": "address"
        },
        {
          "internalType": "uint256",
          "name": "index",
          "type": "uint256"
        }
      ],
      "name": "ERC721OutOfBoundsIndex",
      "type": "error"
    },
    {
      "inputs": [
        {
          "internalType": "address",
          "name": "owner",
          "type": "address"
        }
      ],
      "name": "OwnableInvalidOwner",
      "type": "error"
    },
    {
      "inputs": [
        {
          "internalType": "address",
          "name": "account",
          "type": "address"
        }
      ],
      "name": "OwnableUnauthorizedAccount",
      "type": "error"
    },
    {
      "anonymous": false,
      "inputs": [
        {
          "indexed": true,
          "internalType": "address",
          "name": "owner",
          "type": "address"
        },
        {
          "indexed": true,
          "internalType": "address",
          "name": "approved",
          "type": "address"
        },
        {
          "indexed": true,
          "internalType": "uint256",
          "name": "tokenId",
          "type": "uint256"
        }
      ],
      "name": "Approval",
      "type": "event"
    },
    {
      "anonymous": false,
      "inputs": [
        {
          "indexed": true,
          "internalType": "address",
          "name": "owner",
          "type": "address"
        },
        {
          "indexed": true,
          "internalType": "address",
          "name": "operator",
          "type": "address"
        },
        {
          "indexed": false,
          "internalType": "bool",
          "name": "approved",
          "type": "bool"
        }
      ],
      "name": "ApprovalForAll",
      "type": "event"
    },
    {
      "anonymous": false,
      "inputs": [
        {
          "indexed": true,
          "internalType": "address",
          "name": "previousOwner",
          "type": "address"
        },
        {
          "indexed": true,
          "internalType": "address",
          "name": "newOwner",
          "type": "address"
        }
      ],
      "name": "OwnershipTransferred",
      "type": "event"
    },
    {
      "anonymous": false,
      "inputs": [
        {
          "indexed": true,
          "internalType": "address",
          "name": "from",
          "type": "address"
        },
        {
          "indexed": true,
          "internalType": "address",
          "name": "to",
          "type": "address"
        },
        {
          "indexed": true,
          "internalType": "uint256",
          "name": "tokenId",
          "type": "uint256"
        }
      ],
      "name": "Transfer",
      "type": "event"
    },
    {
      "inputs": [
        {
          "internalType": "address",
          "name": "to",
          "type": "address"
        },
        {
          "internalType": "uint256",
          "name": "tokenId",
          "type": "uint256"
        }
      ],
      "name": "approve",
      "outputs": [],
      "stateMutability": "nonpayable",
      "type": "function"
    },
    {
      "inputs": [
        {
          "internalType": "address",
          "name": "owner",
          "type": "address"
        }
      ],
      "name": "balanceOf",
      "outputs": [
        {
          "internalType": "uint256",
          "name": "",
          "type": "uint256"
        }
      ],
      "stateMutability": "view",
      "type": "function"
    },
    {
      "inputs": [
        {
          "internalType": "uint256",
          "name": "",
          "type": "uint256"
        }
      ],
      "name": "certificates",
      "outputs": [
        {
          "internalType": "string",
          "name": "ipfsHash",
          "type": "string"
        },
        {
          "internalType": "address",
          "name": "issuer",
          "type": "address"
        },
        {
          "internalType": "string",
          "name": "courseName",
          "type": "string"
        },
        {
          "internalType": "uint256",
          "name": "issuedDate",
          "type": "uint256"
        }
      ],
      "stateMutability": "view",
      "type": "function"
    },
    {
      "inputs": [
        {
          "internalType": "uint256",
          "name": "tokenId",
          "type": "uint256"
        }
      ],
      "name": "getApproved",
      "outputs": [
        {
          "internalType": "address",
          "name": "",
          "type": "address"
        }
      ],
      "stateMutability": "view",
      "type": "function"
    },
    {
      "inputs": [
        {
          "internalType": "uint256",
          "name": "tokenId",
          "type": "uint256"
        }
      ],
      "name": "getCertificate",
      "outputs": [
        {
          "internalType": "string",
          "name": "ipfsHash",
          "type": "string"
        },
        {
          "internalType": "address",
          "name": "issuer",
          "type": "address"
        },
        {
          "internalType": "string",
          "name": "courseName",
          "type": "string"
        },
        {
          "internalType": "uint256",
          "name": "issuedDate",
          "type": "uint256"
        }
      ],
      "stateMutability": "view",
      "type": "function"
    },
    {
      "inputs": [
        {
          "internalType": "address",
          "name": "owner",
          "type": "address"
        },
        {
          "internalType": "address",
          "name": "operator",
          "type": "address"
        }
      ],
      "name": "isApprovedForAll",
      "outputs": [
        {
          "internalType": "bool",
          "name": "",
          "type": "bool"
        }
      ],
      "stateMutability": "view",
      "type": "function"
    },
    {
      "inputs": [
        {
          "internalType": "address",
          "name": "recipient",
          "type": "address"
        },
        {
          "internalType": "string",
          "name": "ipfsHash",
          "type": "string"
        },
        {
          "internalType": "string",
          "name": "courseName",
          "type": "string"
        }
      ],
      "name": "issueCertificate",
      "outputs": [
        {
          "internalType": "uint256",
          "name": "",
          "type": "uint256"
        }
      ],
      "stateMutability": "nonpayable",
      "type": "function"
    },
    {
      "inputs": [
        {
          "internalType": "address",
          "name": "",
          "type": "address"
        }
      ],
      "name": "issuers",
      "outputs": [
        {
          "internalType": "bool",
          "name": "",
          "type": "bool"
        }
      ],
      "stateMutability": "view",
      "type": "function"
    },
    {
      "inputs": [],
      "name": "name",
      "outputs": [
        {
          "internalType": "string",
          "name": "",
          "type": "string"
        }
      ],
      "stateMutability": "view",
      "type": "function"
    },
    {
      "inputs": [],
      "name": "owner",
      "outputs": [
        {
          "internalType": "address",
          "name": "",
          "type": "address"
        }
      ],
      "stateMutability": "view",
      "type": "function"
    },
    {
      "inputs": [
        {
          "internalType": "uint256",
          "name": "tokenId",
          "type": "uint256"
        }
      ],
      "name": "ownerOf",
      "outputs": [
        {
          "internalType": "address",
          "name": "",
          "type": "address"
        }
      ],
      "stateMutability": "view",
      "type": "function"
    },
    {
      "inputs": [],
      "name": "renounceOwnership",
      "outputs": [],
      "stateMutability": "nonpayable",
      "type": "function"
    },
    {
      "inputs": [
        {
          "internalType": "address",
          "name": "from",
          "type": "address"
        },
        {
          "internalType": "address",
          "name": "to",
          "type": "address"
        },
        {
          "internalType": "uint256",
          "name": "tokenId",
          "type": "uint256"
        }
      ],
      "name": "safeTransferFrom",
      "outputs": [],
      "stateMutability": "nonpayable",
      "type": "function"
    },
    {
      "inputs": [
        {
          "internalType": "address",
          "name": "from",
          "type": "address"
        },
        {
          "internalType": "address",
          "name": "to",
          "type": "address"
        },
        {
          "internalType": "uint256",
          "name": "tokenId",
          "type": "uint256"
        },
        {
          "internalType": "bytes",
          "name": "data",
          "type": "bytes"
        }
      ],
      "name": "safeTransferFrom",
      "outputs": [],
      "stateMutability": "nonpayable",
      "type": "function"
    },
    {
      "inputs": [
        {
          "internalType": "address",
          "name": "operator",
          "type": "address"
        },
        {
          "internalType": "bool",
          "name": "approved",
          "type": "bool"
        }
      ],
      "name": "setApprovalForAll",
      "outputs": [],
      "stateMutability": "nonpayable",
      "type": "function"
    },
    {
      "inputs": [
        {
          "internalType": "address",
          "name": "issuer",
          "type": "address"
        },
        {
          "internalType": "bool",
          "name": "status",
          "type": "bool"
        }
      ],
      "name": "setIssuer",
      "outputs": [],
      "stateMutability": "nonpayable",
      "type": "function"
    },
    {
      "inputs": [
        {
          "internalType": "bytes4",
          "name": "interfaceId",
          "type": "bytes4"
        }
      ],
      "name": "supportsInterface",
      "outputs": [
        {
          "internalType": "bool",
          "name": "",
          "type": "bool"
        }
      ],
      "stateMutability": "view",
      "type": "function"
    },
    {
      "inputs": [],
      "name": "symbol",
      "outputs": [
        {
          "internalType": "string",
          "name": "",
          "type": "string"
        }
      ],
      "stateMutability": "view",
      "type": "function"
    },
    {
      "inputs": [
        {
          "internalType": "uint256",
          "name": "index",
          "type": "uint256"
        }
      ],
      "name": "tokenByIndex",
      "outputs": [
        {
          "internalType": "uint256",
          "name": "",
          "type": "uint256"
        }
      ],
      "stateMutability": "view",
      "type": "function"
    },
    {
      "inputs": [
        {
          "internalType": "address",
          "name": "owner",
          "type": "address"
        },
        {
          "internalType": "uint256",
          "name": "index",
          "type": "uint256"
        }
      ],
      "name": "tokenOfOwnerByIndex",
      "outputs": [
        {
          "internalType": "uint256",
          "name": "",
          "type": "uint256"
        }
      ],
      "stateMutability": "view",
      "type": "function"
    },
    {
      "inputs": [
        {
          "internalType": "uint256",
          "name": "tokenId",
          "type": "uint256"
        }
      ],
      "name": "tokenURI",
      "outputs": [
        {
          "internalType": "string",
          "name": "",
          "type": "string"
        }
      ],
      "stateMutability": "view",
      "type": "function"
    },
    {
      "inputs": [],
      "name": "totalSupply",
      "outputs": [
        {
          "internalType": "uint256",
          "name": "",
          "type": "uint256"
        }
      ],
      "stateMutability": "view",
      "type": "function"
    },
    {
      "inputs": [
        {
          "internalType": "address",
          "name": "from",
          "type": "address"
        },
        {
          "internalType": "address",
          "name": "to",
          "type": "address"
        },
        {
          "internalType": "uint256",
          "name": "tokenId",
          "type": "uint256"
        }
      ],
      "name": "transferFrom",
      "outputs": [],
      "stateMutability": "nonpayable",
      "type": "function"
    },
    {
      "inputs": [
        {
          "internalType": "address",
          "name": "newOwner",
          "type": "address"
        }
      ],
      "name": "transferOwnership",
      "outputs": [],
      "stateMutability": "nonpayable",
      "type": "function"
    }
  ],
  "bytecode": "0x60806040523480156200001157600080fd5b50336040518060400160405280600e81526020016d10d95c9d1a599a58d85d1953919560921b8152506040518060400160405280600481526020016310d1549560e21b8152508160009081620000689190620001b2565b506001620000778282620001b2565b5050506001600160a01b038116620000a957604051631e4fbdf760e01b81526000600482015260240160405180910390fd5b620000b481620000bb565b506200027e565b600a80546001600160a01b038381166001600160a01b0319831681179093556040519116919082907f8be0079c531659141344cd1fd0a4f28419497f9722a3daafe3b4186f6b6457e090600090a35050565b634e487b7160e01b600052604160045260246000fd5b600181811c908216806200013857607f821691505b6020821081036200015957634e487b7160e01b600052602260045260246000fd5b50919050565b601f821115620001ad57600081815260208120601f850160051c81016020861015620001885750805b601f850160051c820191505b81811015620001a95782815560010162000194565b5050505b505050565b81516001600160401b03811115620001ce57620001ce6200010d565b620001e681620001df845462000123565b846200015f565b602080601f8311600181146200021e5760008415620002055750858301515b600019600386901b1c1916600185901b178555620001a9565b600085815260208120601f198616915b828110156200024f578886015182559484019460019091019084016200022e565b50858210156200026e5787850151600019600388901b60f8161c191681555b5050505050600190811b01905550565b611be2806200028e6000396000f3fe608060405234801561001057600080fd5b50600436106101585760003560e01c80636352211e116100c3578063a22cb4651161007c578063a22cb465146102eb578063b88d4fde146102fe578063c87b56dd14610311578063e985e9c514610324578063e98ac4d814610337578063f2fde38b1461034a57600080fd5b80636352211e14610291578063663b3e22146102a457806370a08231146102b7578063715018a6146102ca5780638da5cb5b146102d257806395d89b41146102e357600080fd5b80632f745c59116101155780632f745c59146101ff57806338a7543e1461021257806342842e0e14610235578063495289be146102485780634f6ccce71461025b57806351640fee1461026e57600080fd5b806301ffc9a71461015d57806306fdde0314610185578063081812fc1461019a578063095ea7b3146101c557806318160ddd146101da57806323b872dd146101ec575b600080fd5b61017061016b3660046115ee565b61035d565b60405190151581526020015b60405180910390f35b61018d61036e565b60405161017c919061165b565b6101ad6101a836600461166e565b610400565b6040516001600160a01b03909116815260200161017c565b6101d86101d33660046116a3565b610429565b005b6008545b60405190815260200161017c565b6101d86101fa3660046116cd565b610438565b6101de61020d3660046116a3565b6104c8565b610170610220366004611709565b600d6020526000908152604090205460ff1681565b6101d86102433660046116cd565b61052d565b6101d8610256366004611724565b61054d565b6101de61026936600461166e565b610580565b61028161027c36600461166e565b6105d9565b60405161017c9493929190611760565b6101ad61029f36600461166e565b6107d4565b6102816102b236600461166e565b6107df565b6101de6102c5366004611709565b610926565b6101d861096e565b600a546001600160a01b03166101ad565b61018d610982565b6101d86102f9366004611724565b610991565b6101d861030c366004611832565b61099c565b61018d61031f36600461166e565b6109b4565b6101706103323660046118ae565b610a29565b6101de610345366004611901565b610a57565b6101d8610358366004611709565b610b74565b600061036882610bb2565b92915050565b60606000805461037d90611975565b80601f01602080910402602001604051908101604052809291908181526020018280546103a990611975565b80156103f65780601f106103cb576101008083540402835291602001916103f6565b820191906000526020600020905b8154815290600101906020018083116103d957829003601f168201915b5050505050905090565b600061040b82610bd7565b506000828152600460205260409020546001600160a01b0316610368565b610434828233610c10565b5050565b6001600160a01b03821661046757604051633250574960e11b8152600060048201526024015b60405180910390fd5b6000610474838333610c1d565b9050836001600160a01b0316816001600160a01b0316146104c2576040516364283d7b60e01b81526001600160a01b038086166004830152602482018490528216604482015260640161045e565b50505050565b60006104d383610926565b82106105045760405163295f44f760e21b81526001600160a01b03841660048201526024810183905260440161045e565b506001600160a01b03919091166000908152600660209081526040808320938352929052205490565b6105488383836040518060200160405280600081525061099c565b505050565b610555610c2a565b6001600160a01b03919091166000908152600d60205260409020805460ff1916911515919091179055565b600061058b60085490565b82106105b45760405163295f44f760e21b8152600060048201526024810183905260440161045e565b600882815481106105c7576105c76119af565b90600052602060002001549050919050565b606060008181806105ff866000908152600260205260409020546001600160a01b031690565b6001600160a01b0316036106555760405162461bcd60e51b815260206004820152601a60248201527f436572746966696361746520646f6573206e6f74206578697374000000000000604482015260640161045e565b6000858152600c602052604080822081516080810190925280548290829061067c90611975565b80601f01602080910402602001604051908101604052809291908181526020018280546106a890611975565b80156106f55780601f106106ca576101008083540402835291602001916106f5565b820191906000526020600020905b8154815290600101906020018083116106d857829003601f168201915b505050918352505060018201546001600160a01b0316602082015260028201805460409092019161072590611975565b80601f016020809104026020016040519081016040528092919081815260200182805461075190611975565b801561079e5780601f106107735761010080835404028352916020019161079e565b820191906000526020600020905b81548152906001019060200180831161078157829003601f168201915b50505091835250506003919091015460209182015281519082015160408301516060909301519199909850919650945092505050565b600061036882610bd7565b600c602052600090815260409020805481906107fa90611975565b80601f016020809104026020016040519081016040528092919081815260200182805461082690611975565b80156108735780601f1061084857610100808354040283529160200191610873565b820191906000526020600020905b81548152906001019060200180831161085657829003601f168201915b505050600184015460028501805494956001600160a01b0390921694919350915061089d90611975565b80601f01602080910402602001604051908101604052809291908181526020018280546108c990611975565b80156109165780601f106108eb57610100808354040283529160200191610916565b820191906000526020600020905b8154815290600101906020018083116108f957829003601f168201915b5050505050908060030154905084565b60006001600160a01b038216610952576040516322718ad960e21b81526000600482015260240161045e565b506001600160a01b031660009081526003602052604090205490565b610976610c2a565b6109806000610c57565b565b60606001805461037d90611975565b610434338383610ca9565b6109a7848484610438565b6104c23385858585610d48565b60606109bf82610bd7565b5060006109d760408051602081019091526000815290565b905060008151116109f75760405180602001604052806000815250610a22565b80610a0184610e73565b604051602001610a129291906119c5565b6040516020818303038152906040525b9392505050565b6001600160a01b03918216600090815260056020908152604080832093909416825291909152205460ff1690565b336000908152600d602052604081205460ff16610ac25760405162461bcd60e51b8152602060048201526024808201527f4e6f7420617574686f72697a656420746f2069737375652063657274696669636044820152636174657360e01b606482015260840161045e565b600b8054906000610ad283611a0a565b9091555050600b5460408051608081018252858152336020808301919091528183018690524260608301526000848152600c9091529190912081518190610b199082611a69565b5060208201516001820180546001600160a01b0319166001600160a01b0390921691909117905560408201516002820190610b549082611a69565b5060608201518160030155905050610b6c8582610f06565b949350505050565b610b7c610c2a565b6001600160a01b038116610ba657604051631e4fbdf760e01b81526000600482015260240161045e565b610baf81610c57565b50565b60006001600160e01b0319821663780e9d6360e01b1480610368575061036882610f20565b6000818152600260205260408120546001600160a01b03168061036857604051637e27328960e01b81526004810184905260240161045e565b6105488383836001610f70565b6000610b6c848484611076565b600a546001600160a01b031633146109805760405163118cdaa760e01b815233600482015260240161045e565b600a80546001600160a01b038381166001600160a01b0319831681179093556040519116919082907f8be0079c531659141344cd1fd0a4f28419497f9722a3daafe3b4186f6b6457e090600090a35050565b6001600160a01b038216610cdb57604051630b61174360e31b81526001600160a01b038316600482015260240161045e565b6001600160a01b03838116600081815260056020908152604080832094871680845294825291829020805460ff191686151590811790915591519182527f17307eab39ab6107e8899845ad3d59bd9653f200f220920489ca2b5937696c31910160405180910390a3505050565b6001600160a01b0383163b15610e6c57604051630a85bd0160e11b81526001600160a01b0384169063150b7a0290610d8a908890889087908790600401611b29565b6020604051808303816000875af1925050508015610dc5575060408051601f3d908101601f19168201909252610dc291810190611b66565b60015b610e2e573d808015610df3576040519150601f19603f3d011682016040523d82523d6000602084013e610df8565b606091505b508051600003610e2657604051633250574960e11b81526001600160a01b038516600482015260240161045e565b805181602001fd5b6001600160e01b03198116630a85bd0160e11b14610e6a57604051633250574960e11b81526001600160a01b038516600482015260240161045e565b505b5050505050565b60606000610e8083611143565b600101905060008167ffffffffffffffff811115610ea057610ea06117a6565b6040519080825280601f01601f191660200182016040528015610eca576020820181803683370190505b5090508181016020015b600019016f181899199a1a9b1b9c1cb0b131b232b360811b600a86061a8153600a8504945084610ed457509392505050565b61043482826040518060200160405280600081525061121b565b60006001600160e01b031982166380ac58cd60e01b1480610f5157506001600160e01b03198216635b5e139f60e01b145b8061036857506301ffc9a760e01b6001600160e01b0319831614610368565b8080610f8457506001600160a01b03821615155b15611046576000610f9484610bd7565b90506001600160a01b03831615801590610fc05750826001600160a01b0316816001600160a01b031614155b8015610fd35750610fd18184610a29565b155b15610ffc5760405163a9fbf51f60e01b81526001600160a01b038416600482015260240161045e565b81156110445783856001600160a01b0316826001600160a01b03167f8c5be1e5ebec7d5bd14f71427d1e84f3dd0314c0f7b2291e5b200ac8c7c3b92560405160405180910390a45b505b5050600090815260046020526040902080546001600160a01b0319166001600160a01b0392909216919091179055565b600080611084858585611233565b90506001600160a01b0381166110e1576110dc84600880546000838152600960205260408120829055600182018355919091527ff3f7a9fe364faab93b216da50a3214154f22a0a2b415b23a84c8169e8b636ee30155565b611104565b846001600160a01b0316816001600160a01b03161461110457611104818561132c565b6001600160a01b0385166111205761111b846113ad565b610b6c565b846001600160a01b0316816001600160a01b031614610b6c57610b6c858561145c565b60008072184f03e93ff9f4daa797ed6e38ed64bf6a1f0160401b83106111825772184f03e93ff9f4daa797ed6e38ed64bf6a1f0160401b830492506040015b6d04ee2d6d415b85acef810000000083106111ae576d04ee2d6d415b85acef8100000000830492506020015b662386f26fc1000083106111cc57662386f26fc10000830492506010015b6305f5e10083106111e4576305f5e100830492506008015b61271083106111f857612710830492506004015b6064831061120a576064830492506002015b600a83106103685760010192915050565b61122583836114ac565b610548336000858585610d48565b6000828152600260205260408120546001600160a01b039081169083161561126057611260818486611511565b6001600160a01b0381161561129e5761127d600085600080610f70565b6001600160a01b038116600090815260036020526040902080546000190190555b6001600160a01b038516156112cd576001600160a01b0385166000908152600360205260409020805460010190555b60008481526002602052604080822080546001600160a01b0319166001600160a01b0389811691821790925591518793918516917fddf252ad1be2c89b69c2b068fc378daa952ba7f163c4a11628f55a4df523b3ef91a4949350505050565b600061133783610926565b6000838152600760209081526040808320546001600160a01b038816845260069092529091209192509081831461138e57600083815260208281526040808320548584528184208190558352600790915290208290555b6000938452600760209081526040808620869055938552525081205550565b6008546000906113bf90600190611b83565b600083815260096020526040812054600880549394509092849081106113e7576113e76119af565b906000526020600020015490508060088381548110611408576114086119af565b600091825260208083209091019290925582815260099091526040808220849055858252812055600880548061144057611440611b96565b6001900381819060005260206000200160009055905550505050565b6000600161146984610926565b6114739190611b83565b6001600160a01b039093166000908152600660209081526040808320868452825280832085905593825260079052919091209190915550565b6001600160a01b0382166114d657604051633250574960e11b81526000600482015260240161045e565b60006114e483836000610c1d565b90506001600160a01b03811615610548576040516339e3563760e11b81526000600482015260240161045e565b61151c838383611575565b610548576001600160a01b03831661154a57604051637e27328960e01b81526004810182905260240161045e565b60405163177e802f60e01b81526001600160a01b03831660048201526024810182905260440161045e565b60006001600160a01b03831615801590610b6c5750826001600160a01b0316846001600160a01b031614806115af57506115af8484610a29565b80610b6c5750506000908152600460205260409020546001600160a01b03908116911614919050565b6001600160e01b031981168114610baf57600080fd5b60006020828403121561160057600080fd5b8135610a22816115d8565b60005b8381101561162657818101518382015260200161160e565b50506000910152565b6000815180845261164781602086016020860161160b565b601f01601f19169290920160200192915050565b602081526000610a22602083018461162f565b60006020828403121561168057600080fd5b5035919050565b80356001600160a01b038116811461169e57600080fd5b919050565b600080604083850312156116b657600080fd5b6116bf83611687565b946020939093013593505050565b6000806000606084860312156116e257600080fd5b6116eb84611687565b92506116f960208501611687565b9150604084013590509250925092565b60006020828403121561171b57600080fd5b610a2282611687565b6000806040838503121561173757600080fd5b61174083611687565b91506020830135801515811461175557600080fd5b809150509250929050565b608081526000611773608083018761162f565b6001600160a01b03861660208401528281036040840152611794818661162f565b91505082606083015295945050505050565b634e487b7160e01b600052604160045260246000fd5b600067ffffffffffffffff808411156117d7576117d76117a6565b604051601f8501601f19908116603f011681019082821181831017156117ff576117ff6117a6565b8160405280935085815286868601111561181857600080fd5b858560208301376000602087830101525050509392505050565b6000806000806080858703121561184857600080fd5b61185185611687565b935061185f60208601611687565b925060408501359150606085013567ffffffffffffffff81111561188257600080fd5b8501601f8101871361189357600080fd5b6118a2878235602084016117bc565b91505092959194509250565b600080604083850312156118c157600080fd5b6118ca83611687565b91506118d860208401611687565b90509250929050565b600082601f8301126118f257600080fd5b610a22838335602085016117bc565b60008060006060848603121561191657600080fd5b61191f84611687565b9250602084013567ffffffffffffffff8082111561193c57600080fd5b611948878388016118e1565b9350604086013591508082111561195e57600080fd5b5061196b868287016118e1565b9150509250925092565b600181811c9082168061198957607f821691505b6020821081036119a957634e487b7160e01b600052602260045260246000fd5b50919050565b634e487b7160e01b600052603260045260246000fd5b600083516119d781846020880161160b565b8351908301906119eb81836020880161160b565b01949350505050565b634e487b7160e01b600052601160045260246000fd5b600060018201611a1c57611a1c6119f4565b5060010190565b601f82111561054857600081815260208120601f850160051c81016020861015611a4a5750805b601f850160051c820191505b81811015610e6a57828155600101611a56565b815167ffffffffffffffff811115611a8357611a836117a6565b611a9781611a918454611975565b84611a23565b602080601f831160018114611acc5760008415611ab45750858301515b600019600386901b1c1916600185901b178555610e6a565b600085815260208120601f198616915b82811015611afb57888601518255948401946001909101908401611adc565b5085821015611b195787850151600019600388901b60f8161c191681555b5050505050600190811b01905550565b6001600160a01b0385811682528416602082015260408101839052608060608201819052600090611b5c9083018461162f565b9695505050505050565b600060208284031215611b7857600080fd5b8151610a22816115d8565b81810381811115610368576103686119f4565b634e487b7160e01b600052603160045260246000fdfea264697066735822122084dc5a99d92a54197a1840b0d4c72a56eccf929968c055b4b7dacd308ea315df64736f6c63430008140033",
  "linkReferences": {},
  "deployedLinkReferences": {}
}